:100000000C942A000C9434000C9434000C943400AA
:100010000C9434000C9434000C9434000C94340090
:100020000C9434000C9434000C9434000C94340080
:100030000C9434000C9434000C9434000C94340070
:100040000C9434000C9434000C9434000C94340060
:100050000C94340011241FBECFE5D8E0DEBFCDBF25
:100060000E9445000C9476000C94000087B3806BCE
:1000700087BB81E58DB90895C4988FB9779BFECF72
:100080006FB9779BFECFC49A08950E9436006FEF38
:1000900089E00E943C006FEF8AE00E943C0067EF1D
:1000A0008BE00E943C0061E08CE00E943C0010E08C
:1000B000612FC1E0D1E0D60F8C2F0E943C002FE5CC
:1000C0008AEE90E0215080409040E1F700C00000AF
:1000D000CF5F6D2FC93071F7185FC1E060E08C2FE2
:1000E0000E943C00CF5FC930C9F7E2CFF894FFCF40
:00000001FF
