:100000000C942A000C9434000C9434000C943400AA
:100010000C9434000C9434000C9434000C94340090
:100020000C9434000C9434000C9434000C94340080
:100030000C9434000C9434000C9434000C94340070
:100040000C9434000C9434000C9434000C94340060
:100050000C94340011241FBECFE5D8E0DEBFCDBF25
:100060000E9440000C9453000C94000088E181BD74
:1000700011BC08958AE081BD81B58E7F81BD089550
:10008000889AC1E00E943A002FE38DE093E021506E
:1000900080409040E1F700C0000082B38C2782BB13
:0A00A0000E943600EFCFF894FFCF66
:00000001FF
