:020000040800F2
:1000000000280020250C0008750C0008750C00085D
:10001000750C0008750C0008750C00080000000045
:10002000000000000000000000000000750C000847
:10003000750C000800000000750C0008750C000825
:10004000750C0008750C0008750C0008750C00088C
:10005000750C0008750C0008750C0008750C00087C
:10006000750C0008750C0008750C0008750C00086C
:10007000750C0008750C0008750C0008750C00085C
:10008000750C0008750C0008750C0008750C00084C
:10009000750C0008750C0008750C0008750C00083C
:1000A000750C0008750C0008750C0008750C00082C
:1000B000750C0008750C0008750C0008750C00081C
:1000C000750C0008750C0008750C0008750C00080C
:1000D000750C0008750C0008750C0008750C0008FC
:1000E000750C0008750C000800000000750C000875
:1000F000750C0008750C0008750C0008750C0008DC
:10010000750C0008750C0008750C0008750C0008CB
:10011000750C0008750C0008750C0008750C0008BB
:10012000750C0008750C0008750C0008750C0008AB
:1001300010B5054C237833B9044B13B10448AFF321
:1001400000800123237010BD20000020000000006B
:10015000C00C000808B5034B1BB103490348AFF3BB
:10016000008008BD0000000024000020C00C000832
:1001700080B500AF374B01221A80364B04229A70AB
:10018000344B0122DA703349334800F0EDFB314B38
:1001900002221A802F4B04229A702E4B0122DA7011
:1001A0002C492D4800F0E0FB2A4B08221A80294BED
:1001B00004229A70274B0122DA702649264800F063
:1001C000D3FB244B10221A80224B04229A70214B1D
:1001D0000122DA701F49204800F0C6FB1D4B202287
:1001E0001A801C4B04229A701A4B0122DA701949AA
:1001F000194800F0B9FB174B40221A80154B042216
:100200009A70144B0122DA701249134800F0ACFBCB
:10021000104B80221A800F4B04229A700D4B012242
:10022000DA700C490C4800F09FFB0A4B4FF48072C7
:100230001A80084B04229A70064B0122DA70054995
:10024000054800F091FBFF21034800F03AFC00BF95
:1002500080BD00BF3C000020000C014080B582B092
:1002600000AF00237B60B6E05F4B1B689BB20122AE
:1002700019465E4800F00EFC5B4B5B689BB20122A6
:1002800019465A4800F006FC574B9B689BB2012266
:100290001946564800F0FEFB534BDB689BB2012227
:1002A0001946524800F0F6FB4F4A7B6852F823305B
:1002B0009BB2002219464D4800F0ECFB00233B6046
:1002C00082E04B4A3B6852F823309BB219464748BC
:1002D00000F0C9FB0346002B6AD100BF444A3B68CB
:1002E00052F823309BB21946404800F0BCFB03464D
:1002F000002BF3D07B68032B63D801A252F823F0C4
:10030000110300083903000861030008890300088D
:100310003B68002B01D1372362E03B68012B01D100
:1003200034235DE03B68022B01D1312358E03B6868
:10033000032B3FD13F2353E03B68002B01D13823EF
:100340004EE03B68012B01D1352349E03B68022B8D
:1003500001D1322344E03B68032B2DD130233FE011
:100360003B68002B01D139233AE03B68012B01D1D6
:10037000362335E03B68022B01D1332330E03B6864
:10038000032B1BD13D232BE03B68002B01D12F23F6
:1003900026E03B68012B01D12A2321E03B68022B98
:1003A00001D12D231CE03B68032B09D12B2317E03F
:1003B00000BF06E000BF04E000BF02E000BF00E0B5
:1003C00000BF3B6801333B603B68032B7FF779AF8D
:1003D0007B6801337B607B68032B7FF745AF41234C
:1003E00018460837BD4680BD10000020000C0140B3
:1003F0000000002080B485B000AF78600023FB606F
:100400000BE00023BB6002E0BB680133BB60BB684C
:10041000FE2BF9D9FB680133FB60FA687B689A42CE
:10042000EFD300BF00BF1437BD4680BC704700004B
:1004300080B500AF524B4FF480721A80504B0422AB
:100440009A704F4B0122DA704D494E4800F08CFAF9
:100450004B4B4FF400721A80494B04229A70484B60
:100460000122DA704649474800F07EFA444B4FF4C7
:1004700080621A80424B04229A70414B0122DA704A
:100480003F49404800F070FA3D4B01221A803C4B36
:1004900004229A703A4B0122DA703949394800F047
:1004A00063FA374B02221A80354B04229A70344B80
:1004B0000122DA703249334800F056FA304B0422F8
:1004C0001A802F4B04229A702D4B0122DA702C498E
:1004D0002C4800F049FA2A4B08221A80284B0422A3
:1004E0009A70274B0122DA702549264800F03CFA21
:1004F000234B10221A80224B04229A70204B012297
:10050000DA701F491F4800F02FFA1D4B20221A8075
:100510001B4B04229A701A4B0122DA7018491948B1
:1005200000F022FA164B40221A80154B04229A70D2
:10053000134B0122DA701249124800F015FA104BE1
:1005400080221A800E4B04229A700D4B0122DA7021
:100550000B490C4800F008FA00224FF4806109486A
:1005600000F098FA00224FF48071064800F092FAE9
:1005700000224FF40071034800F08CFA00BF80BDE8
:100580003C0000200008014080B500AF012000F0D1
:1005900057F800BF80BD000080B500AF01224FF4C6
:1005A0008061074800F076FA3220FFF723FF00222F
:1005B0004FF48061024800F06DFA00BF80BD00BFBB
:1005C0000008014080B582B000AF03460A46FB71C7
:1005D0001346BB71FB79012B08D1BB790F2B05D8D2
:1005E000BB79803BDBB2184600F02AF8FB79022B7E
:1005F00008D1BB790F2B05D8BB79403BDBB218463D
:1006000000F01EF800BF0837BD4680BD80B500AFC2
:100610001420FFF7EFFEFFF70BFF0F20FFF7EAFEB6
:10062000FFF7B2FF382000F00BF8062000F008F8C2
:10063000802000F005F80F2000F002F800BF80BD18
:1006400080B582B000AF0346FB71FB799BB21946BF
:100650000B4800F036FA00224FF40071084800F011
:1006600019FA00224FF48071054800F013FA0120B6
:10067000FFF7C0FEFFF790FF00BF0837BD4680BD03
:100680000008014080B582B000AF0346FB71FB79E2
:100690009BB219460B4800F014FA00224FF4007187
:1006A000084800F0F7F900224FF48071054800F087
:1006B000F1F90120FFF79EFEFFF76EFF00BF08373C
:1006C000BD4680BD0008014080B584B000AF7860B1
:1006D0000023FB601CE0FB680133FB607B685A1C55
:1006E0007A601B781846FFF7CDFFFB68102B04D10A
:1006F00000210220FFF766FF0AE0FB68202B07D1EC
:10070000FFF742FF00210120FFF75CFF0023FB60A1
:100710007B681B78002BDED100BF00BF1037BD46C1
:1007200080BD000080B500AF314B4FF400721A80DD
:100730002F4B04229A702E4B0122DA702C492D483F
:1007400000F012F92A4B4FF480621A80284B0422E1
:100750009A70274B0122DA702549264800F004F9E7
:10076000234B4FF400621A80214B04229A70204BD5
:100770000122DA701E491F4800F0F6F81C4B4FF4B6
:1007800080521A801A4B04229A70194B0122DA7097
:100790001749184800F0E8F8154B4FF400521A803A
:1007A000134B04229A70124B0122DA70104911483F
:1007B00000F0DAF80E4B4FF480421A800C4B042202
:1007C0009A700B4B0122DA7009490A4800F0CCF804
:1007D000074B4FF400421A80054B04229A70044BD9
:1007E0000122DA700249034800F0BEF800BF80BD64
:1007F0003C000020000C014080B483B000AF0346F1
:10080000FB80FB88B3F5004F00F0A580B3F5004FE7
:1008100000F3A380B3F5804F00F09B80B3F5804FC9
:1008200000F39B80B3F5005F00F09180B3F5005FAB
:1008300000F39380B3F5805F00F08780B3F5805FAD
:1008400000F38B80B3F5006F7DD0B3F5006F00F33C
:100850008480B3F5806F74D0B3F5806F7DDCB3F521
:10086000007F6CD0B3F5007F77DCB3F5807F64D078
:10087000B3F5807F71DC802B5DD0802B6DDC202B6D
:1008800048DC002B69DD013B1F2B66D801A252F822
:1008900023F000BF1B0900081F0900085B090008BE
:1008A000230900085B0900085B0900085B090008D0
:1008B000270900085B0900085B0900085B090008BC
:1008C0005B0900085B0900085B0900085B09000878
:1008D0002B0900085B0900085B0900085B09000898
:1008E0005B0900085B0900085B0900085B09000858
:1008F0005B0900085B0900085B0900085B09000848
:100900005B0900085B0900085B0900085B09000837
:100910002F090008402B0CD01FE000231FE0042308
:100920001DE008231BE00C2319E0102317E014231B
:1009300015E0182313E01C2311E000230FE004232B
:100940000DE008230BE00C2309E0102307E014233B
:1009500005E0182303E01C2301E000BF0023184634
:100960000C37BD4680BC704790B585B000AF78604D
:1009700039600023BB600023FB733B681B88FF2B9F
:1009800001D87B6801E07B680433BB603B681B884F
:100990001846FFF731FF03461A460F239340DA4308
:1009A000BB681B681A40BB681A603B689B78072BC2
:1009B0000BD03B689B78062B07D03B689B78052BB8
:1009C00003D03B689B78042B0ED13B689B78043B9B
:1009D0009B005AB23B68DB785BB213435BB2DBB27D
:1009E00003F00F03FB732CE03B689B78002B03D0D4
:1009F0003B689B78012B07D13B689B789B00DBB25F
:100A000003F00F03FB731CE03B689B78082B02D1BB
:100A10000423FB7315E00823FB733B689B78022BD0
:100A200007D17B68DB683A6812881A437B68DA6012
:100A300007E07B68DB683A681288D2431A407B681B
:100A4000DA60FC7B3B681B881846FFF7D5FE03463F
:100A500004FA03F2BB681B681A43BB681A6000BF44
:100A60001437BD4690BD80B485B000AF78600B46AA
:100A70007B807B689A687B881340002B02D001231F
:100A8000FB7301E00023FB73FB7B18461437BD4664
:100A900080BC704780B483B000AF78600B467B8029
:100AA00013467B707B78002B03D07A887B681A61B1
:100AB00002E07A887B685A6100BF0C37BD4680BC73
:100AC000704780B483B000AF78600B467B807A8833
:100AD0007B68DA6000BF0C37BD4680BC7047000001
:100AE00080B588B000AF00F06BF8FFF78FFDFFF71F
:100AF00019FE2E48FFF7E8FD4FF4FA7000F074F885
:100B0000FFF742FD2A4A07F1100307CA03C31A8000
:100B10000233120C1A70274A3B1D07CA03C31A80FE
:100B20000233120C1A700023FB771BE0FB7F07F1E6
:100B30002002134413F8103C9BB25B029BB219468F
:100B40001D48FFF7BEFFFB7F07F12002134413F897
:100B50001C3C1846FFF796FDC82000F045F8FB7FC7
:100B60000133FB77FB7F0A2BE0D9FFF70DFDFFF781
:100B7000FFFA1248FFF7A8FD4FF4FA7000F034F8BE
:100B8000FFF702FDFFF76AFB0346BB77BB7F3F2BF6
:100B900002D0412B03D107E0FFF7F6FC04E0BB7F56
:100BA0001846FFF76FFD00BFECE700BFD80C000848
:100BB000F80C0008040D0008000C0140E40C0008CB
:100BC00080B400AF074B9B69064A43F0040393616E
:100BD000044B9B69034A43F00803936100BFBD4681
:100BE00080BC70470010024080B485B000AF7860D0
:100BF0000023FB600BE00023BB6002E0BB68013315
:100C0000BB60BB68FE2BF9D9FB680133FB60FA6857
:100C10007B689A42EFD300BF00BF1437BD4680BC4B
:100C2000704700000D488546AFF300800C480D4921
:100C30000D4A002302E0D458C4500433C4188C4237
:100C4000F9D30A4A0A4C002301E013600432A2429D
:100C5000FBD300F011F8FFF743FFFEE70028002068
:100C60000000002020000020180D000820000020B7
:100C700040000020FEE7000070B500260C4D0D4C32
:100C8000641BA410A64209D100F01AF800260A4DF0
:100C90000A4C641BA410A64205D170BD55F8043B54
:100CA00098470136EEE755F8043B98470136F2E7DE
:100CB000100D0008100D0008100D0008140D00089C
:100CC000F8B500BFF8BC08BC9E467047F8B500BF39
:080CD000F8BC08BC9E46704709
:100CD8004845592054484552452021004B657970B4
:100CE80061642069732072656164792021000000C5
:100CF800017924304C1202190010010030313233CE
:080D080034353637383930006C
:040D10005501000881
:040D140031010008A1
:100D180001000000020000000800000010000000B0
:100D280020000000400000008000000000010000DA
:0400000508000C25BE
:00000001FF
