:020000040800F2
:1000000000280020010C0008510C0008510C0008C9
:10001000510C0008510C0008510C000800000000B1
:10002000000000000000000000000000510C00086B
:10003000510C000800000000510C0008510C000891
:10004000510C0008510C0008510C0008510C00081C
:10005000510C0008510C0008510C0008510C00080C
:10006000510C0008510C0008510C0008510C0008FC
:10007000510C0008510C0008510C0008510C0008EC
:10008000510C0008510C0008510C0008510C0008DC
:10009000510C0008510C0008510C0008510C0008CC
:1000A000510C0008510C0008510C0008510C0008BC
:1000B000510C0008510C0008510C0008510C0008AC
:1000C000510C0008510C0008510C0008510C00089C
:1000D000510C0008510C0008510C0008510C00088C
:1000E000510C0008510C000800000000510C0008E1
:1000F000510C0008510C0008510C0008510C00086C
:10010000510C0008510C0008510C0008510C00085B
:10011000510C0008510C0008510C0008510C00084B
:10012000510C0008510C0008510C0008510C00083B
:1001300010B5054C237833B9044B13B10448AFF321
:1001400000800123237010BD20000020000000006B
:100150009C0C000808B5034B1BB103490348AFF3DF
:10016000008008BD00000000240000209C0C000856
:1001700080B582B000AF0123BB800423BB71012393
:10018000FB713B1D19462C4800F0DEFB0223BB80AF
:100190000423BB710123FB713B1D1946264800F067
:1001A000D3FB0823BB800423BB710123FB713B1DE0
:1001B0001946214800F0C8FB1023BB800423BB7103
:1001C0000123FB713B1D19461B4800F0BDFB20239A
:1001D000BB800423BB710123FB713B1D19461648EC
:1001E00000F0B2FB4023BB800423BB710123FB71F1
:1001F0003B1D1946104800F0A7FB8023BB80042359
:10020000BB710123FB713B1D19460B4800F09CFBA1
:100210004FF48073BB800423BB710123FB713B1D32
:100220001946054800F090FBFF21034800F039FC17
:1002300000BF0837BD4680BD000C014080B582B0CC
:1002400000AF00237B60B6E05F4B1B689BB20122CE
:1002500019465E4800F00EFC5B4B5B689BB20122C6
:1002600019465A4800F006FC574B9B689BB2012286
:100270001946564800F0FEFB534BDB689BB2012247
:100280001946524800F0F6FB4F4A7B6852F823307B
:100290009BB2002219464D4800F0ECFB00233B6066
:1002A00082E04B4A3B6852F823309BB219464748DC
:1002B00000F0C9FB0346002B6AD100BF444A3B68EB
:1002C00052F823309BB21946404800F0BCFB03466D
:1002D000002BF3D07B68032B63D801A252F823F0E4
:1002E000F10200081903000841030008690300082F
:1002F0003B68002B01D1372362E03B68012B01D121
:1003000034235DE03B68022B01D1312358E03B6888
:10031000032B3FD13F2353E03B68002B01D138230F
:100320004EE03B68012B01D1352349E03B68022BAD
:1003300001D1322344E03B68032B2DD130233FE031
:100340003B68002B01D139233AE03B68012B01D1F6
:10035000362335E03B68022B01D1332330E03B6884
:10036000032B1BD13D232BE03B68002B01D12F2316
:1003700026E03B68012B01D12A2321E03B68022BB8
:1003800001D12D231CE03B68032B09D12B2317E05F
:1003900000BF06E000BF04E000BF02E000BF00E0D5
:1003A00000BF3B6801333B603B68032B7FF779AFAD
:1003B0007B6801337B607B68032B7FF745AF41236C
:1003C00018460837BD4680BD10000020000C0140D3
:1003D0000000002080B485B000AF78600023FB608F
:1003E0000BE00023BB6002E0BB680133BB60BB686D
:1003F000FE2BF9D9FB680133FB60FA687B689A42EF
:10040000EFD300BF00BF1437BD4680BC704700006B
:1004100080B500AF524B4FF480721A80504B0422CB
:100420009A704F4B0122DA704D494E4800F08CFA19
:100430004B4B4FF400721A80494B04229A70484B80
:100440000122DA704649474800F07EFA444B4FF4E7
:1004500080621A80424B04229A70414B0122DA706A
:100460003F49404800F070FA3D4B01221A803C4B56
:1004700004229A703A4B0122DA703949394800F067
:1004800063FA374B02221A80354B04229A70344BA0
:100490000122DA703249334800F056FA304B042218
:1004A0001A802F4B04229A702D4B0122DA702C49AE
:1004B0002C4800F049FA2A4B08221A80284B0422C3
:1004C0009A70274B0122DA702549264800F03CFA41
:1004D000234B10221A80224B04229A70204B0122B7
:1004E000DA701F491F4800F02FFA1D4B20221A8096
:1004F0001B4B04229A701A4B0122DA7018491948D2
:1005000000F022FA164B40221A80154B04229A70F2
:10051000134B0122DA701249124800F015FA104B01
:1005200080221A800E4B04229A700D4B0122DA7041
:100530000B490C4800F008FA00224FF4806109488A
:1005400000F098FA00224FF48071064800F092FA09
:1005500000224FF40071034800F08CFA00BF80BD08
:100560003C0000200008014080B500AF012000F0F1
:1005700057F800BF80BD000080B500AF01224FF4E6
:100580008061074800F076FA3220FFF723FF00224F
:100590004FF48061024800F06DFA00BF80BD00BFDB
:1005A0000008014080B582B000AF03460A46FB71E7
:1005B0001346BB71FB79012B08D1BB790F2B05D8F2
:1005C000BB79803BDBB2184600F02AF8FB79022B9E
:1005D00008D1BB790F2B05D8BB79403BDBB218465D
:1005E00000F01EF800BF0837BD4680BD80B500AFE3
:1005F0001420FFF7EFFEFFF70BFF0F20FFF7EAFED7
:10060000FFF7B2FF382000F00BF8062000F008F8E2
:10061000802000F005F80F2000F002F800BF80BD38
:1006200080B582B000AF0346FB71FB799BB21946DF
:100630000B4800F036FA00224FF40071084800F031
:1006400019FA00224FF48071054800F013FA0120D6
:10065000FFF7C0FEFFF790FF00BF0837BD4680BD23
:100660000008014080B582B000AF0346FB71FB7902
:100670009BB219460B4800F014FA00224FF40071A7
:10068000084800F0F7F901224FF48071054800F0A6
:10069000F1F90120FFF79EFEFFF76EFF00BF08375C
:1006A000BD4680BD0008014080B584B000AF7860D1
:1006B0000023FB601CE0FB680133FB607B685A1C75
:1006C0007A601B781846FFF7CDFFFB68102B04D12A
:1006D00000210220FFF766FF0AE0FB68202B07D10C
:1006E000FFF742FF00210120FFF75CFF0023FB60C2
:1006F0007B681B78002BDED100BF00BF1037BD46E2
:1007000080BD000080B500AF314B4FF400721A80FD
:100710002F4B04229A702E4B0122DA702C492D485F
:1007200000F012F92A4B4FF480621A80284B042201
:100730009A70274B0122DA702549264800F004F907
:10074000234B4FF400621A80214B04229A70204BF5
:100750000122DA701E491F4800F0F6F81C4B4FF4D6
:1007600080521A801A4B04229A70194B0122DA70B7
:100770001749184800F0E8F8154B4FF400521A805A
:10078000134B04229A70124B0122DA70104911485F
:1007900000F0DAF80E4B4FF480421A800C4B042222
:1007A0009A700B4B0122DA7009490A4800F0CCF824
:1007B000074B4FF400421A80054B04229A70044BF9
:1007C0000122DA700249034800F0BEF800BF80BD84
:1007D0003C000020000C014080B483B000AF034611
:1007E000FB80FB88B3F5004F00F0A580B3F5004F08
:1007F00000F3A380B3F5804F00F09B80B3F5804FEA
:1008000000F39B80B3F5005F00F09180B3F5005FCB
:1008100000F39380B3F5805F00F08780B3F5805FCD
:1008200000F38B80B3F5006F7DD0B3F5006F00F35C
:100830008480B3F5806F74D0B3F5806F7DDCB3F541
:10084000007F6CD0B3F5007F77DCB3F5807F64D098
:10085000B3F5807F71DC802B5DD0802B6DDC202B8D
:1008600048DC002B69DD013B1F2B66D801A252F842
:1008700023F000BFFB080008FF0800083B09000840
:10088000030900083B0900083B0900083B09000870
:10089000070900083B0900083B0900083B0900085C
:1008A0003B0900083B0900083B0900083B09000818
:1008B0000B0900083B0900083B0900083B09000838
:1008C0003B0900083B0900083B0900083B090008F8
:1008D0003B0900083B0900083B0900083B090008E8
:1008E0003B0900083B0900083B0900083B090008D8
:1008F0000F090008402B0CD01FE000231FE0042349
:100900001DE008231BE00C2319E0102317E014233B
:1009100015E0182313E01C2311E000230FE004234B
:100920000DE008230BE00C2309E0102307E014235B
:1009300005E0182303E01C2301E000BF0023184654
:100940000C37BD4680BC704790B585B000AF78606D
:1009500039600023BB600023FB733B681B88FF2BBF
:1009600001D87B6801E07B680433BB603B681B886F
:100970001846FFF731FF03461A460F239340DA4328
:10098000BB681B681A40BB681A603B689B78072BE2
:100990000BD03B689B78062B07D03B689B78052BD8
:1009A00003D03B689B78042B0ED13B689B78043BBB
:1009B0009B005AB23B68DB785BB213435BB2DBB29D
:1009C00003F00F03FB732CE03B689B78002B03D0F4
:1009D0003B689B78012B07D13B689B789B00DBB27F
:1009E00003F00F03FB731CE03B689B78082B02D1DC
:1009F0000423FB7315E00823FB733B689B78022BF1
:100A000007D17B68DB683A6812881A437B68DA6032
:100A100007E07B68DB683A681288D2431A407B683B
:100A2000DA60FC7B3B681B881846FFF7D5FE03465F
:100A300004FA03F2BB681B681A43BB681A6000BF64
:100A40001437BD4690BD80B485B000AF78600B46CA
:100A50007B807B689A687B881340002B02D001233F
:100A6000FB7301E00023FB73FB7B18461437BD4684
:100A700080BC704780B483B000AF78600B467B8049
:100A800013467B707B78002B03D07A887B681A61D1
:100A900002E07A887B685A6100BF0C37BD4680BC93
:100AA000704780B483B000AF78600B467B807A8853
:100AB0007B68DA6000BF0C37BD4680BC7047000021
:100AC00080B588B000AF00F069F8FFF78FFDFFF741
:100AD00019FE2D48FFF7E8FD1E2000F073F8FFF720
:100AE00043FD2A4A07F1100307CA03C31A800233E1
:100AF000120C1A70264A3B1D07CA03C31A80023320
:100B0000120C1A700023FB771BE0FB7F07F1200219
:100B1000134413F8103C9BB25B029BB219461D486C
:100B2000FFF7BFFFFB7F07F12002134413F81C3CC3
:100B30001846FFF797FD642000F044F8FB7F01336F
:100B4000FB77FB7F0A2BE0D9FFF70EFDFFF710FBC9
:100B50001148FFF7A9FD1E2000F034F8FFF704FD4F
:100B6000FFF76CFB0346BB77BB7F3F2B02D0412BCB
:100B700003D107E0FFF7F8FC04E0BB7F1846FFF75E
:100B800071FD00BFECE700BFB40C0008E80C0008E2
:100B9000F40C0008000C0140D40C000880B400AF35
:100BA000074B9B69064A43F004039361044B9B691E
:100BB000034A43F00803936100BFBD4680BC704701
:100BC0000010024080B485B000AF78600023FB6065
:100BD0000BE00023BB6002E0BB680133BB60BB6875
:100BE000FE2BF9D9FB680133FB60FA687B689A42F7
:100BF000EFD300BF00BF1437BD4680BC7047000074
:100C00000D488546AFF300800C480D490D4A00237E
:100C100002E0D458C4500433C4188C42F9D30A4AB1
:100C20000A4C002301E013600432A242FBD300F01F
:100C300011F8FFF745FFFEE7002800200000002024
:100C400020000020080D00082000002040000020A7
:100C5000FEE7000070B500260C4D0D4C641BA4107F
:100C6000A64209D100F01AF800260A4D0A4C641B6E
:100C7000A410A64205D170BD55F8043B9847013633
:100C8000EEE755F8043B98470136F2E7000D0008FF
:100C9000000D0008000D0008040D0008F8B500BFA5
:100CA000F8BC08BC9E467047F8B500BFF8BC08BC4D
:040CB0009E467047A5
:100CB40048455920544845524520212020202020D1
:100CC4002020204D696E61204B6172616D0000002F
:100CD4004B65797061642069732072656164792160
:100CE40000000000017924304C12021900100100A8
:0C0CF400303132333435363738393000B7
:040D00005501000891
:040D040031010008B1
:100D080001000000020000000800000010000000C0
:100D180020000000400000008000000000010000EA
:0400000508000C01E2
:00000001FF
