S017000041746D65676133322D4472697665722E73726563C0
S11300000C942A000C943C000C943C000C943C008E
S11300100C943C000C943C000C943C000C943C006C
S11300200C943C000C943C000C94EA000C94C30027
S11300300C945A000C9411010C943C000C9438015B
S11300400C943C000C943C000C943C000C943C003C
S11300500C943C0011241FBECFE5D8E0DEBFCDBF19
S113006020E0A0E6B0E001C01D92A936B207E1F796
S11300700E9455000C945F010C940000CF93DF9311
S113008000D000D01F92CDB7DEB7BB9A88E7898332
S113009082E08A831B821D821C82CE0101960E940B
S11300A0840084E60E94B800FFCF0E943E0080E0F6
S11300B090E008951F920F920FB60F9211242F9380
S11300C03F934F935F936F937F938F939F93AF93DC
S11300D0BF93EF93FF93E0916000F091610000847F
S11300E0F185E02D0995FF91EF91BF91AF919F911B
S11300F08F917F916F915F914F913F912F910F90CD
S11301000FBE0F901F901895CF93DF93EC0185E0FD
S1130110FE01A4E6B0E001900D928A95E1F793B751
S11301208881892B83BF88818F7E883609F4BB9AA6
S113013093B78981892B83BF89818650823008F4E3
S1130140B89899B78A81892B89BF8A81882321F03D
S11301508FB780688FBF03C08FB78F778FBF8B81B6
S11301609C819093630080936200DF91CF91089506
S113017090916400983611F48CBF0895983711F467
S113018080958CBF08951F920F920FB60F92112481
S11301902F933F934F935F936F937F938F939F938B
S11301A0AF93BF93EF93FF93E0916200F0916300EC
S11301B00995FF91EF91BF91AF919F918F917F919D
S11301C06F915F914F913F912F910F900FBE0F90C0
S11301D01F9018951F920F920FB60F9211242F9310
S11301E03F934F935F936F937F938F939F93AF93BB
S11301F0BF93EF93FF93E0916200F0916300099540
S1130200FF91EF91BF91AF919F918F917F916F91EA
S11302105F914F913F912F910F900FBE0F901F90C0
S113022018951F920F920FB60F9211242F933F939C
S11302304F935F936F937F938F939F93AF93BF93EA
S1130240EF93FF93E0916200F09163000995FF91B1
S1130250EF91BF91AF919F918F917F916F915F913A
S11302604F913F912F910F900FBE0F901F901895B3
S11302701F920F920FB60F9211242F933F934F9317
S11302805F936F937F938F939F93AF93BF93EF93FA
S1130290FF93E0916200F09163000995FF91EF9163
S11302A0BF91AF919F918F917F916F915F914F918A
S11302B03F912F910F900FBE0F901F901895F894B7
S10502C0FFCF6A
S9030000FC
