:020000040800F2
:10000000002800201D0E00086D0E00086D0E00086F
:100010006D0E00086D0E00086D0E00080000000057
:100020000000000000000000000000006D0E00084D
:100030006D0E0008000000006D0E00086D0E000837
:100040006D0E00086D0E00086D0E00086D0E0008A4
:100050006D0E00086D0E00089D070008C10700081E
:10006000E5070008090800082D0800086D0E0008C3
:100070006D0E00086D0E00086D0E00086D0E000874
:100080006D0E00086D0E00086D0E00086D0E000864
:100090006D0E00086D0E00086D0E00085108000876
:1000A0006D0E00086D0E00086D0E00086D0E000844
:1000B0006D0E00086D0E00086D0E00086D0E000834
:1000C0006D0E00086D0E00086D0E00086D0E000824
:1000D0006D0E00086D0E00086D0E00086D0E000814
:1000E000F90800086D0E0008000000006D0E000801
:1000F0006D0E00086D0E00086D0E00086D0E0008F4
:100100006D0E00086D0E00086D0E00086D0E0008E3
:100110006D0E00086D0E00086D0E00086D0E0008D3
:100120006D0E00086D0E00086D0E00086D0E0008C3
:1001300010B5054C237833B9044B13B10448AFF321
:1001400000800123237010BD00000020000000008B
:10015000B80E000808B5034B1BB103490348AFF3C1
:10016000008008BD0000000004000020B80E000858
:1001700080B588B000AF00F035F800F089F9154877
:1001800000F0E4F91E2000F047F800F03FF9124AB1
:1001900007F10C0307CA83E8070000233B760F4BE7
:1001A000FB6101237B7607F10C03184600F0FBF995
:1001B0000B4B01221A700A4B1B78002B04D000F065
:1001C00025F9074B00221A704FF47A7000F024F8DA
:1001D000F1E700BFD00E0008F00E0008550200083D
:1001E0001C00002080B400AF0A4B9B69094A43F011
:1001F00004039361074B9B69064A43F0080393612C
:10020000044B9B69034A43F00103936100BFBD4661
:1002100080BC70470010024080B485B000AF7860A9
:100220000023FB600BE00023BB6002E0BB680133EE
:10023000BB60BB68FE2BF9D9FB680133FB60FA6831
:100240007B689A42EFD300BF00BF1437BD4680BC25
:100250007047000080B500AF054B01221A700548B9
:1002600000F074F94FF47A70FFF7D6FF00BF80BD3D
:100270001C000020FC0E000880B485B000AF786040
:100280000023FB600BE00023BB6002E0BB6801338E
:10029000BB60BB68FE2BF9D9FB680133FB60FA68D1
:1002A0007B689A42EFD300BF00BF1437BD4680BCC5
:1002B0007047000080B500AF524B4FF480721A8037
:1002C000504B04229A704F4B0122DA704D494E4830
:1002D00000F0F8FC4B4B4FF400721A80494B04229B
:1002E0009A70484B0122DA704649474800F0EAFC10
:1002F000444B4FF480621A80424B04229A70414B67
:100300000122DA703F49404800F0DCFC3D4B0122FD
:100310001A803C4B04229A703A4B0122DA70394918
:10032000394800F0CFFC374B02221A80354B0422AB
:100330009A70344B0122DA703249334800F0C2FC23
:10034000304B04221A802F4B04229A702D4B01222D
:10035000DA702C492C4800F0B5FC2A4B08221A8090
:10036000284B04229A70274B0122DA70254926482F
:1003700000F0A8FC234B10221A80224B04229A7012
:10038000204B0122DA701F491F4800F09BFC1D4BD7
:1003900020221A801B4B04229A701A4B0122DA7019
:1003A0001849194800F08EFC164B40221A80154B54
:1003B00004229A70134B0122DA701249124800F09D
:1003C00081FC104B80221A800E4B04229A700D4B38
:1003D0000122DA700B490C4800F074FC00224FF443
:1003E0008061094800F0EDFC00224FF4807106485E
:1003F00000F0E7FC00224FF40071034800F0E1FC3C
:1004000000BF80BD200000200008014080B500AF83
:10041000012000F057F800BF80BD000080B500AF9C
:1004200001224FF48061074800F0CBFC3220FFF737
:1004300023FF00224FF48061024800F0C2FC00BF9D
:1004400080BD00BF0008014080B582B000AF034608
:100450000A46FB711346BB71FB79012B08D1BB79AE
:100460000F2B05D8BB79803BDBB2184600F02AF889
:10047000FB79022B08D1BB790F2B05D8BB79403B08
:10048000DBB2184600F01EF800BF0837BD4680BD3D
:1004900080B500AF1420FFF7EFFEFFF70BFF0F2032
:1004A000FFF7EAFEFFF7B2FF382000F00BF8062056
:1004B00000F008F8802000F005F80F2000F002F8A6
:1004C00000BF80BD80B582B000AF0346FB71FB79F1
:1004D0009BB219460B4800F08BFC00224FF40071D0
:1004E000084800F06EFC00224FF48071054800F0CF
:1004F00068FC0120FFF7C0FEFFF790FF00BF083740
:10050000BD4680BD0008014080B582B000AF034603
:10051000FB71FB799BB219460B4800F069FC002285
:100520004FF40071084800F04CFC01224FF4807138
:10053000054800F046FC0120FFF79EFEFFF76EFF26
:1005400000BF0837BD4680BD0008014080B584B0BB
:1005500000AF78600023FB601CE0FB680133FB60A8
:100560007B685A1C7A601B781846FFF7CDFFFB6842
:10057000102B04D100210220FFF766FF0AE0FB6880
:10058000202B07D1FFF742FF00210120FFF75CFF7E
:100590000023FB607B681B78002BDED100BF00BF0F
:1005A0001037BD4680BD80B582B000AF78607868F6
:1005B00000F004F800BF0837BD4680BD80B584B0A8
:1005C00000AF78607B681B893B810123BB727B682D
:1005D0005B6807F108021146184600F073FB7B6860
:1005E0001B889B089BB2FB737B681B88DBB203F004
:1005F0000303DBB29B00BB73614AFB7B023352F8FF
:100600002320BB7B0F2101FA03F3DB4318465C492F
:10061000FB7B0240023341F82320594AFB7B023323
:1006200052F823207B685B6856498B4216D07B6862
:100630005B6855498B420FD07B685B6853498B429E
:1006400008D07B685B6852498B4201D1032306E0E6
:10065000002304E0022302E0012300E00023B97B31
:100660008B4018464649FB7B0243023341F8232066
:10067000484B9B687A681288114601228A40D2430F
:100680001146444A0B409360424BDB687A681288FB
:10069000114601228A40D24311463E4A0B40D360A4
:1006A0007B681B7B002B0BD13A4B9B687A681288C6
:1006B000114601228A401146364A0B43936029E0D5
:1006C0007B681B7B012B0BD1324BDB687A6812886D
:1006D000114601228A4011462E4A0B43D36019E08D
:1006E0007B681B7B022B15D12A4B9B687A6812888A
:1006F000114601228A401146264A0B439360254B3E
:10070000DB687A681288114601228A401146214A24
:100710000B43D3607B681B8819467B681B691E4AA4
:1007200042F821307B685B7B012B10D1194B1B6891
:100730007A681288114601228A401146154A0B43F5
:1007400013607B681B88184600F038F914E07B685A
:100750005B7B002B10D10F4B1B687A681288114607
:1007600001228A40D24311460A4A0B4013607B683B
:100770001B88184600F088F900BF1037BD4680BDC1
:100780000000014000080140000C01400010014041
:1007900000140140000401402400002080B500AF97
:1007A000054B5B69044A43F001035361034B1B682B
:1007B000984700BF80BD00BF000401402400002016
:1007C00080B500AF054B5B69044A43F002035361F7
:1007D000034B5B68984700BF80BD00BF0004014029
:1007E0002400002080B500AF054B5B69044A43F04C
:1007F00004035361034B9B68984700BF80BD00BF53
:10080000000401402400002080B500AF054B5B6967
:10081000044A43F008035361034BDB68984700BF69
:1008200080BD00BF000401402400002080B500AF5F
:10083000054B5B69044A43F010035361034B1B698A
:10084000984700BF80BD00BF000401402400002085
:1008500080B500AF264B5B6903F02003002B08D066
:10086000234B5B69224A43F020035361214B5B69B0
:1008700098471F4B5B6903F04003002B08D01C4BCB
:100880005B691B4A43F0400353611A4B9B699847CD
:10089000174B5B6903F08003002B08D0144B5B6996
:1008A000134A43F080035361124BDB699847104BA6
:1008B0005B6903F48073002B08D00D4B5B690C4A15
:1008C00043F4807353610B4B1B6A9847084B5B6979
:1008D00003F40073002B08D0054B5B69044A43F412
:1008E00000735361034B5B6A984700BF80BD00BF34
:1008F000000401402400002080B500AF2D4B5B694F
:1009000003F48063002B08D02A4B5B69294A43F427
:1009100080635361284B9B6A9847264B5B6903F4BD
:100920000063002B08D0234B5B69224A43F4006329
:100930005361214BDB6A98471E4B5B6903F480537C
:10094000002B08D01B4B5B691A4A43F48053536158
:10095000194B1B6B9847174B5B6903F40053002B33
:1009600008D0144B5B69134A43F400535361124B94
:100970005B6B98470F4B5B6903F48043002B08D0F7
:100980000C4B5B690B4A43F4804353610A4B9B6BEE
:100990009847084B5B6903F40043002B08D0054BD4
:1009A0005B69044A43F400435361034BDB6B984794
:1009B00000BF80BD000401402400002080B483B04B
:1009C00000AF0346FB80FB880F2B54D801A252F8DE
:1009D00023F000BF150A0008230A0008310A0008A6
:1009E0003F0A00084D0A00085B0A00085B0A00087D
:1009F0005B0A00085B0A00085B0A0008690A000835
:100A0000690A0008690A0008690A0008690A0008FA
:100A1000690A00081A4B1B68194A43F04003136027
:100A200029E0174B1B68164A43F08003136022E04D
:100A3000134B1B68124A43F4807313601BE0104B86
:100A40001B680F4A43F40073136014E00C4B1B68DF
:100A50000B4A43F4806313600DE0094B1B68084A9E
:100A600043F40003136006E0064B1B68054A43F499
:100A70008073136000BF00BF0C37BD4680BC704759
:100A800000E100E004E100E080B483B000AF034681
:100A9000FB80FB880F2B54D801A252F823F000BF33
:100AA000E10A0008EF0A0008FD0A00080B0B000825
:100AB000190B0008270B0008270B0008270B00085C
:100AC000270B0008270B0008350B0008350B000822
:100AD000350B0008350B0008350B0008350B0008F6
:100AE0001A4B1B68194A43F04003136029E0174B67
:100AF0001B68164A43F08003136022E0134B1B6807
:100B0000124A43F4807313601BE0104B1B680F4ABA
:100B100043F40073136014E00C4B1B680B4A43F45E
:100B2000806313600DE0094B1B68084A43F400031F
:100B3000136006E0064B1B68054A43F4807313609C
:100B400000BF00BF0C37BD4680BC704780E100E0AD
:100B500084E100E080B483B000AF0346FB80FB88F3
:100B6000B3F5004F00F0A580B3F5004F00F3A3806C
:100B7000B3F5804F00F09B80B3F5804F00F39B806E
:100B8000B3F5005F00F09180B3F5005F00F3938050
:100B9000B3F5805F00F08780B3F5805F00F38B8052
:100BA000B3F5006F7DD0B3F5006F00F38480B3F52B
:100BB000806F74D0B3F5806F7DDCB3F5007F6CD0AF
:100BC000B3F5007F77DCB3F5807F64D0B3F5807F29
:100BD00071DC802B5DD0802B6DDC202B48DC002B62
:100BE00069DD013B1F2B66D801A252F823F000BF3C
:100BF000770C00087B0C0008B70C00087F0C00087D
:100C0000B70C0008B70C0008B70C0008830C0008EC
:100C1000B70C0008B70C0008B70C0008B70C0008A8
:100C2000B70C0008B70C0008B70C0008870C0008C8
:100C3000B70C0008B70C0008B70C0008B70C000888
:100C4000B70C0008B70C0008B70C0008B70C000878
:100C5000B70C0008B70C0008B70C0008B70C000868
:100C6000B70C0008B70C0008B70C00088B0C000884
:100C7000402B0CD01FE000231FE004231DE00823BD
:100C80001BE00C2319E0102317E0142315E01823B0
:100C900013E01C2311E000230FE004230DE00823E0
:100CA0000BE00C2309E0102307E0142305E01823D0
:100CB00003E01C2301E000BF002318460C37BD46AB
:100CC00080BC704790B585B000AF78603960002374
:100CD000BB600023FB733B681B88FF2B01D87B683C
:100CE00001E07B680433BB603B681B881846FFF754
:100CF00031FF03461A460F239340DA43BB681B6853
:100D00001A40BB681A603B689B78072B0BD03B6886
:100D10009B78062B07D03B689B78052B03D03B685C
:100D20009B78042B0ED13B689B78043B9B005AB206
:100D30003B68DB785BB213435BB2DBB203F00F03BB
:100D4000FB732CE03B689B78002B03D03B689B78BF
:100D5000012B07D13B689B789B00DBB203F00F03AC
:100D6000FB731CE03B689B78082B02D10423FB73C8
:100D700015E00823FB733B689B78022B07D17B6847
:100D8000DB683A6812881A437B68DA6007E07B68A0
:100D9000DB683A681288D2431A407B68DA60FC7BD1
:100DA0003B681B881846FFF7D5FE034604FA03F29A
:100DB000BB681B681A43BB681A6000BF1437BD4686
:100DC00090BD80B483B000AF78600B467B80134643
:100DD0007B707B78002B03D07A887B681A6102E0F5
:100DE0007A887B685A6100BF0C37BD4680BC70476B
:100DF00080B483B000AF78600B467B807A887B68D4
:100E0000DA6000BF0C37BD4680BC704780B500AFCC
:100E1000FFF7AEF90023184680BD00000D48854657
:100E2000AFF300800C480D490D4A002302E0D4586E
:100E3000C4500433C4188C42F9D30A4A0A4C002324
:100E400001E013600432A242FBD300F011F8FFF777
:100E5000DDFFFEE700280020000000200000002049
:100E6000200F00080000002060000020FEE70000C6
:100E700070B500260C4D0D4C641BA410A64209D180
:100E800000F01AF800260A4D0A4C641BA410A64272
:100E900005D170BD55F8043B98470136EEE755F88B
:100EA000043B98470136F2E7180F0008180F0008B6
:100EB000180F00081C0F0008F8B500BFF8BC08BCEC
:100EC0009E467047F8B500BFF8BC08BC9E46704708
:100ED00048455920544845524520212020202020B3
:100EE0002020204D696E61204B6172616D00000011
:100EF00009000000000C0140000217004952512077
:100F00004558544939206861732068617070656E76
:080F10006564205F7C2D2000C8
:040F18005501000877
:040F1C003101000897
:0400000508000E1DC4
:00000001FF
