:020000040800F2
:1000000000280020FD1000084D1100084D110008C7
:100010004D1100084D1100084D11000800000000AE
:100020000000000000000000000000004D1100086A
:100030004D110008000000004D1100084D1100088E
:100040004D1100084D1100084D1100084D11000818
:100050004D1100084D110008C1020008E50200081A
:10006000090300082D030008510300084D11000882
:100070004D1100084D1100084D1100084D110008E8
:100080004D1100084D1100084D1100084D110008D8
:100090004D1100084D1100084D11000875030008AE
:1000A0004D1100084D1100084D1100084D110008B8
:1000B0004D1100084D1100084D1100084D110008A8
:1000C0004D1100084D1100084D110008ED0B0008FE
:1000D000490C0008B1100008C5100008D91000082C
:1000E0001D0400084D110008000000004D1100081B
:1000F0004D1100084D1100084D1100084D11000868
:100100004D1100084D1100084D1100084D11000857
:100110004D1100084D1100084D1100084D11000847
:100120004D1100084D1100084D1100084D11000837
:1001300010B5054C237833B9044B13B10448AFF321
:1001400000800123237010BD00000020000000008B
:100150009811000808B5034B1BB103490348AFF3DE
:10016000008008BD00000000040000209811000875
:1001700080B500AF00F006F800F01EF800F040F87F
:10018000FEE7000080B400AF0A4B9B69094A43F0C8
:1001900004039361074B9B69064A43F0080393618C
:1001A000044B9B69034A43F00103936100BFBD46C2
:1001B00080BC70470010024080B586B000AF4FF49D
:1001C000E133BB600023FB7320233B740A4B7B614C
:1001D00000237B7300233B730023BB730C233B7111
:1001E0003B1D1946054800F05DFD044800F0D8FEAF
:1001F00000BF1837BD4680BD7502000800380140B9
:1002000080B588B000AF1023FB8201237B820223DC
:100210003B820023BB810023FB8100237B810423DD
:100220003B8100233B830023FB614FF44073BB827F
:100230001023BB800423BB710123FB713B1D1946B6
:100240000A4800F005FA01221021084800F07FFA60
:1002500007F108031946064800F0EEFA044800F0DA
:1002600085FB00BF2037BD4680BD00BF00080140B0
:100270000030014080B500AF01220D490D4800F06B
:1002800023FE01220A490B4800F0D4FD0022102170
:10029000094800F05CFA01220549084800F07CFC9E
:1002A00001221021044800F052FA00BF80BD00BFB7
:1002B00030000020003801400008014000300140BB
:1002C00080B500AF054B5B69044A43F001035361FD
:1002D000034B1B68984700BF80BD00BF000401406E
:1002E0003400002080B500AF054B5B69044A43F041
:1002F00002035361034B5B68984700BF80BD00BF9A
:10030000000401403400002080B500AF054B5B695C
:10031000044A43F004035361034B9B68984700BFB2
:1003200080BD00BF000401403400002080B500AF54
:10033000054B5B69044A43F008035361034BDB68D8
:10034000984700BF80BD00BF00040140340000207A
:1003500080B500AF054B5B69044A43F0100353615D
:10036000034B1B69984700BF80BD00BF00040140DC
:100370003400002080B500AF264B5B6903F02003FA
:10038000002B08D0234B5B69224A43F020035361C2
:10039000214B5B6998471F4B5B6903F04003002BBF
:1003A00008D01C4B5B691B4A43F0400353611A4B56
:1003B0009B699847174B5B6903F08003002B08D0BB
:1003C000144B5B69134A43F080035361124BDB69A2
:1003D0009847104B5B6903F48073002B08D00D4BDA
:1003E0005B690C4A43F4807353610B4B1B6A98475B
:1003F000084B5B6903F40073002B08D0054B5B6965
:10040000044A43F400735361034B5B6A984700BF8F
:1004100080BD00BF000401403400002080B500AF63
:100420002D4B5B6903F48063002B08D02A4B5B697A
:10043000294A43F480635361284B9B6A9847264BB3
:100440005B6903F40063002B08D0234B5B69224AED
:1004500043F400635361214BDB6A98471E4B5B6991
:1004600003F48053002B08D01B4B5B691A4A43F4FA
:1004700080535361194B1B6B9847174B5B6903F40F
:100480000053002B08D0144B5B69134A43F400530C
:100490005361124B5B6B98470F4B5B6903F48043CE
:1004A000002B08D00C4B5B690B4A43F4804353612B
:1004B0000A4B9B6B9847084B5B6903F40043002B86
:1004C00008D0054B5B69044A43F400435361034B76
:1004D000DB6B984700BF80BD000401403400002062
:1004E00080B483B000AF0346FB80FB88B3F5004FB8
:1004F00000F0A580B3F5004F00F3A380B3F5804F63
:1005000000F09B80B3F5804F00F39B80B3F5005F54
:1005100000F09180B3F5005F00F39380B3F5805F46
:1005200000F08780B3F5805F00F38B80B3F5006F38
:100530007DD0B3F5006F00F38480B3F5806F74D085
:10054000B3F5806F7DDCB3F5007F6CD0B3F5007F31
:1005500077DCB3F5807F64D0B3F5807F71DC802BCE
:100560005DD0802B6DDC202B48DC002B69DD013B4E
:100570001F2B66D801A252F823F000BF0306000823
:1005800007060008430600080B060008430600089B
:1005900043060008430600080F060008430600084B
:1005A0004306000843060008430600084306000807
:1005B0004306000843060008130600084306000827
:1005C00043060008430600084306000843060008E7
:1005D00043060008430600084306000843060008D7
:1005E00043060008430600084306000843060008C7
:1005F000430600084306000817060008402B0CD0ED
:100600001FE000231FE004231DE008231BE00C2350
:1006100019E0102317E0142315E0182313E01C231E
:1006200011E000230FE004230DE008230BE00C236E
:1006300009E0102307E0142305E0182303E01C233E
:1006400001E000BF002318460C37BD4680BC704750
:1006500090B585B000AF786039600023BB6000239F
:10066000FB733B681B88FF2B01D87B6801E07B682C
:100670000433BB603B681B881846FFF731FF034615
:100680001A460F239340DA43BB681B681A40BB68C5
:100690001A603B689B78072B0BD03B689B78062B36
:1006A00007D03B689B78052B03D03B689B78042BD5
:1006B0000ED13B689B78043B9B005AB23B68DB78C9
:1006C0005BB213435BB2DBB203F00F03FB732CE0AE
:1006D0003B689B78002B03D03B689B78012B07D1AC
:1006E0003B689B789B00DBB203F00F03FB731CE0BD
:1006F0003B689B78082B02D10423FB7315E0082389
:10070000FB733B689B78022B07D17B68DB683A68F8
:1007100012881A437B68DA6007E07B68DB683A6816
:100720001288D2431A407B68DA60FC7B3B681B88E6
:100730001846FFF7D5FE034604FA03F2BB681B68B0
:100740001A43BB681A6000BF1437BD4690BD80B421
:1007500083B000AF78600B467B8013467B707B785C
:10076000002B03D07A887B681A6102E07A887B6864
:100770005A6100BF0C37BD4680BC704780B400AFE3
:100780000C4B5B689B0803F00303022B0AD0022B7F
:100790000AD8002B02D0012B02D005E0064B04E062
:1007A000064B02E0054B00E0034B1846BD4680BCFB
:1007B000704700BF0010024000127A000024F400CD
:1007C00080B500AFFFF7DAFF0246054B5B681B09F7
:1007D00003F00F030349CB5C22FA03F3184680BDF4
:1007E00000100240B811000880B500AFFFF7E8FF25
:1007F0000246054B5B681B0A03F007030349CB5C09
:1008000022FA03F3184680BD00100240B011000820
:1008100080B500AFFFF7D4FF0246054B5B68DB0AEB
:1008200003F007030349CB5C22FA03F3184680BDAB
:1008300000100240B011000880B485B000AF7860AD
:1008400039600023FB810023BB817B68424A9342CD
:1008500009D1424A3B681360414B9B69404A43F4CB
:10086000805393610CE07B683E4A934208D13B4A37
:100870003B6853603A4BDB69394A43F48043D361A8
:10088000FB8943F04003FB813B681A88FB891343D3
:10089000FB813B685A88FB891343FB813B689A883C
:1008A000FB891343FB813B68DA88FB891343FB8197
:1008B0003B681A89FB891343FB813B685A89FB8992
:1008C0001343FB813B689B89042B05D13B689A89C4
:1008D000BB891343BB8110E03B689B894FF6FB72D9
:1008E000934205D13B689A89BB891340BB8104E0E0
:1008F0003B689A89FB891343FB813B68DA89FB8952
:100900001343FB813B681B8A002B19D03B681A8A72
:10091000BB891343BB817B680F4A934206D1124BBC
:100920001B68114A43F00803136009E07B680D4A15
:10093000934205D10C4B1B680B4A43F01003136024
:10094000FA897B681A60BA897B685A6000BF1437DD
:10095000BD4680BC704700BF003001401C00002035
:10096000001002400038004004E100E080B584B08F
:1009700000AF78607B68834A934278D1824B1B68D2
:100980001B88042B43D1804B1B689B89042B0ED002
:100990004FF6FB72934217D11023BB810123BB7327
:1009A00007F10C0319467948FFF752FE0CE01023BB
:1009B000BB810623BB730123FB7307F10C031946AC
:1009C0007248FFF745FE00BF2023BB810623BB739F
:1009D0000123FB7307F10C0319466C48FFF738FE3F
:1009E0004023BB810123BB7307F10C031946674801
:1009F000FFF72EFE8023BB810623BB730123FB730D
:100A000007F10C0319466148FFF722FEB5E05E4B83
:100A10001B689B89002B09D11023BB810123BB7369
:100A200007F10C0319465948FFF712FE2023BB813A
:100A30000123BB7307F10C0319465448FFF708FE66
:100A40004023BB810623BB730123FB7307F10C0317
:100A500019464E48FFF7FCFD8023BB810123BB7381
:100A600007F10C0319464948FFF7F2FD85E07B6862
:100A7000474A934240F08180434B5B681B88042BBC
:100A800048D1414B5B689B89042B0FD04FF6FB721A
:100A9000934219D14FF48053BB810123BB7307F1FB
:100AA0000C0319463B48FFF7D3FD0DE04FF480538C
:100AB000BB810623BB730123FB7307F10C031946AB
:100AC0003448FFF7C5FD00BF4FF40053BB81062338
:100AD000BB730123FB7307F10C0319462D48FFF785
:100AE000B7FD4FF48043BB810123BB7307F10C03B7
:100AF00019462848FFF7ACFD4FF40043BB8106239D
:100B0000BB730123FB7307F10C0319462148FFF760
:100B10009FFD32E01C4B5B689B89002B0AD14FF490
:100B20008053BB810123BB7307F10C03194619489D
:100B3000FFF78EFD4FF40053BB810123BB7307F118
:100B40000C0319461348FFF783FD4FF48043BB8124
:100B50000623BB730123FB7307F10C0319460D48F1
:100B6000FFF776FD4FF40043BB810123BB7307F110
:100B70000C0319460748FFF76BFD00BF1037BD4651
:100B800080BD00BF003001401C0000200008014073
:100B900000380040000C014080B485B000AFF86020
:100BA000B9601346FB71FB79012B06D100BFFB68CE
:100BB0009B6803F00203002BF9D0BB681B881A4620
:100BC000FB68DA60FB79012B06D100BFFB689B68EC
:100BD00003F00103002BF9D0FB68DB689AB2BB6815
:100BE0001A8000BF1437BD4680BC704780B582B004
:100BF00000AF134B9B685B0803F00103DAB23B794B
:100C000062F300033B710E4B9B6803F00103DAB201
:100C10003B7962F341033B71094B9B681B0903F06D
:100C20000103DAB23B7962F382033B71054B1B6827
:100C30005B693879984700BF0837BD4680BD00BF63
:100C4000003001401C00002080B582B000AF134B83
:100C50009B685B0803F00103DAB23B7962F300039F
:100C60003B710E4B9B6803F00103DAB23B7962F3F0
:100C700041033B71094B9B681B0903F00103DAB286
:100C80003B7962F382033B71054B5B685B693879A2
:100C9000984700BF0837BD4680BD00BF0038004000
:100CA0001C00002080B584B000AF786039607B689C
:100CB000594A934209D1594B9B69584A43F480439E
:100CC0009361574A3B6813601AE07B68554A934228
:100CD00009D1524BDB69514A43F40033D361504A86
:100CE0003B6853600CE07B684F4A934208D14B4B02
:100CF000DB694A4A43F48023D361494A3B689360E5
:100D00007B68DB6843F400527B68DA607B68DB68F1
:100D10003A6812781A437B68DA607B68DB683A6865
:100D2000127A1A437B68DA607B68DB683A68527A29
:100D30001A437B68DA607B681B693A68927A1A43C7
:100D40007B681A617B685B693A68D27A1A437B6870
:100D50005A617B68304A934203D1FFF759FDF8602E
:100D600002E0FFF741FDF8603B685B681B01FA6831
:100D7000B2FBF3F31901FA6813469B0013449A007F
:100D80001A443B685B689B00B2FBF3F23B685B680C
:100D90001B01F868B0FBF3F3642000FB03F3D31AE4
:100DA0001B01224AA2FB03235B0903F00F030B4341
:100DB000BB607B68BA689A603B681B7B002B26D0BF
:100DC0007B68DB683A68127B1A437B68DA607B6871
:100DD000114A934206D1164B1B68154A43F0200373
:100DE000136014E07B680F4A934206D1104B1B68D6
:100DF0000F4A43F04003136009E07B680A4A9342BC
:100E000005D10B4B1B680A4A43F08003136000BFF7
:100E10001037BD4680BD00BF0038014000100240C1
:100E20002400002000440040004800401F85EB5192
:100E300004E100E080B485B000AFF860B96013460B
:100E4000FB71FB79002B06D100BFFB681B6803F028
:100E50008003002BF9D0FB68174A93420AD1174B45
:100E60001B681B7A002B22D1BB681B88DAB2FB6897
:100E70005A601CE0FB68124A93420AD10F4B5B6830
:100E80001B7A002B13D1BB681B88DAB2FB685A604F
:100E90000DE0FB680B4A934209D1084B9B681B7A13
:100EA000002B04D1BB681B88DAB2FB685A6000BF14
:100EB0001437BD4680BC7047003801402400002034
:100EC000004400400048004080B485B000AFF860A6
:100ED000B9601346FB71FB79002B06D100BFFB689C
:100EE0001B6803F02003002BF9D0FB68284A9342CB
:100EF00015D1284B1B685B7A002B07D1FB685B6818
:100F00009BB2DBB29AB2BB681A803BE0FB685B68BD
:100F10009BB203F07F039AB2BB681A8032E0FB6891
:100F20001D4A934215D11B4B5B685B7A002B07D19E
:100F3000FB685B689BB2DBB29AB2BB681A8021E0A7
:100F4000FB685B689BB203F07F039AB2BB681A80B0
:100F500018E0FB68114A934214D10E4B9B685B7AF0
:100F6000002B07D1FB685B689BB2DBB29AB2BB680F
:100F70001A8007E0FB685B689BB203F07F039AB2BC
:100F8000BB681A8000BF1437BD4680BC704700BFE5
:100F90000038014024000020004400400048004088
:100FA00080B584B000AF78607B683B4A934218D12B
:100FB0004FF40073BB810623BB730123FB7307F15E
:100FC0000C0319463548FFF743FB4FF48063BB81A0
:100FD0000823BB7307F10C0319463048FFF738FBB1
:100FE00055E07B682E4A934225D10423BB8106231A
:100FF000BB730123FB7307F10C0319462748FFF766
:1010000027FB0823BB810823BB7307F10C03194698
:101010002248FFF71DFB234B5B68DB7A002B36D0A1
:101020000123BB810123BB7307F10C0319461B4845
:10103000FFF70EFB2BE07B681B4A934227D14FF44E
:101040008063BB810623BB730123FB7307F10C0391
:1010500019461648FFF7FCFA4FF40063BB810123E1
:10106000BB7307F10C0319461048FFF7F1FA0D4B5B
:101070009B68DB7A002B0AD04FF40053BB8101231D
:10108000BB7307F10C0319460848FFF7E1FA00BFEC
:101090001037BD4680BD00BF003801400008014048
:1010A000004400402400002000480040000C0140A3
:1010B00080B500AF024B1B681B69984700BF80BD1D
:1010C0002400002080B500AF024B5B681B69984785
:1010D00000BF80BD2400002080B500AF024B9B689C
:1010E0001B69984700BF80BD2400002080B500AF79
:1010F000FFF73EF80023184680BD00000D488546E6
:10110000AFF300800C480D490D4A002302E0D4588B
:10111000C4500433C4188C42F9D30A4A0A4C002341
:1011200001E013600432A242FBD300F011F8FFF794
:10113000DDFFFEE700280020000000200000002066
:10114000D01100080000002070000020FEE7000021
:1011500070B500260C4D0D4C641BA410A64209D19D
:1011600000F01AF800260A4D0A4C641BA410A6428F
:1011700005D170BD55F8043B98470136EEE755F8A8
:10118000043B98470136F2E7C8110008C81100086F
:10119000C8110008CC110008F8B500BFF8BC08BCA5
:1011A0009E467047F8B500BFF8BC08BC9E46704725
:1011B0000000000001020304000000000000000025
:0811C0000102030406070809FF
:0411C80055010008C5
:0411CC0031010008E5
:04000005080010FDE2
:00000001FF
