S017000041746D65676133322D4472697665722E73726563C0
S11300000C943B000C944D000C944D000C944D004A
S11300100C944D000C944D000C944D000C944D0028
S11300200C944D000C944D000C944D000C944D0018
S11300300C9458030C946B040C944D000C9492048F
S11300400C944D000C944D000C944D000C944D00F8
S11300500C944D00AF00E000110142017301A401B2
S1130060D5010602370261026D027902850291020E
S11300709D02A902B50211241FBECFE5D8E0DEBF60
S1130080CDBF20E0A0E6B0E001C01D92A638B207C3
S1130090E1F70E949A000C94BF040C94000080E0E5
S11300A00E94580461E0809182000E944D0440E067
S11300B064E086E390E00E94540261E082E890E00C
S11300C00E944B0341E064E086E390E00E94540206
S11300D00895CF93DF93CDB7DEB762970FB6F89448
S11300E0DEBF0FBECDBF83E08A8392E09E832FE400
S11300F030E038872F831C828B831D821982CE01C6
S113010001960E9482031F861D861C861B861A8602
S113011080E18987188A1A8A198ACE0109960E9471
S1130120C3020E94E50241E064E086E390E00E949D
S11301305402FFCF0E94690080E090E00895CF93BD
S1130140DF93DC01EB01E8814E2F50E0493051058B
S113015008F0A7C1FA01E65DFF4F0C94B904898148
S1130160813091F018F08230E9F09BC111968C91A6
S113017011978E7F11968C93119712968C911297EA
S11301808E7F12968C938DC111968C9111978E7FD0
S113019011968C93119712968C91129781601296F6
S11301A08C937FC111968C911197816011968C93D9
S11301B0119712968C9112978E7F12968C9371C11F
S11301C08981813091F018F08230E9F06AC111968A
S11301D08C9111978D7F11968C93119712968C9117
S11301E012978D7F12968C935CC111968C91119706
S11301F08D7F11968C93119712968C911297826031
S113020012968C934EC111968C911197826011961F
S11302108C93119712968C9112978D7F12968C93D2
S113022040C18981813091F018F08230E9F039C100
S113023011968C9111978B7F11968C93119712962E
S11302408C9112978B7F12968C932BC111968C9163
S113025011978B7F11968C93119712968C9112970C
S1130260846012968C931DC111968C9111978460B1
S113027011968C93119712968C9112978B7F1296EC
S11302808C930FC18981813091F018F08230E9F0AC
S113029008C111968C911197877F11968C931197B1
S11302A012968C911297877F12968C93FAC01196AE
S11302B08C911197877F11968C93119712968C913C
S11302C01297886012968C93ECC011968C911197BA
S11302D0886011968C93119712968C911297877F50
S11302E012968C93DEC08981813091F018F08230AF
S11302F0E9F0D7C011968C9111978F7E11968C934B
S1130300119712968C9112978F7E12968C93C9C076
S113031011968C9111978F7E11968C93119712964A
S11303208C911297806112968C93BBC011968C911C
S11303301197806111968C93119712968C91129754
S11303408F7E12968C93ADC08981813091F018F024
S11303508230E9F0A6C011968C9111978F7D119689
S11303608C93119712968C9112978F7D12968C9381
S113037098C011968C9111978F7D11968C9311973B
S113038012968C911297806212968C938AC0119661
S11303908C911197806211968C93119712968C917F
S11303A012978F7D12968C937CC08981813091F055
S11303B018F08230E9F075C011968C9111978F7BFB
S11303C011968C93119712968C9112978F7B12969B
S11303D08C9367C011968C9111978F7B11968C9397
S11303E0119712968C911297806412968C9359C02F
S11303F011968C911197806411968C931197129693
S11304008C9112978F7B12968C934BC0898181308B
S113041091F018F08230E9F044C011968C91119754
S11304208F7711968C93119712968C9112978F77E0
S113043012968C9336C011968C9111978F771196E2
S11304408C93119712968C911297806812968C93C4
S113045028C011968C911197806811968C931197EE
S113046012968C9112978F7712968C931AC0898169
S1130470813051F018F0823071F013C011961C9243
S1130480119712961C920DC011961C9211978FEF22
S113049012968C9306C08FEF11968C931197129637
S11304A01C92DF91CF9108950F931F93062F10E0B4
S11304B00830110508F064C0F801ED5CFF4F0C949E
S11304C0B904442329F0FC0122812160228358C00D
S11304D0FC0122812E7F228353C0442329F0FC0196
S11304E02281226022834CC0FC0122812D7F228341
S11304F047C0442329F0FC0122812460228340C0A8
S1130500FC0122812B7F22833BC0442329F0FC0180
S113051022812860228334C0FC012281277F228328
S11305202FC0442329F0FC0122812061228328C0AA
S1130530FC0122812F7E228323C0442329F0FC0165
S11305402281206222831CC0FC0122812F7D228310
S113055017C0442329F0FC0122812064228310C0A7
S1130560FC0122812F7B22830BC0442329F0FC0150
S113057022812068228304C0FC0122812F772283F8
S11305801F910F910895FC01909361008093600086
S113059090818181892B80649281892B9381892B1D
S11305A09481892B9581911103C09681892B03C075
S11305B09681892B709A9781992329F09FB7906827
S11305C09FBF9781892B8DB908951F93CF93DF9394
S11305D000D0CDB7DEB7E0916000F091610080817A
S11305E0803151F587E0898312E01A83BE016F5F81
S11305F07F4F86E390E00E949F0086E089831A8201
S1130600BE016F5F7F4F86E390E00E949F0085E00C
S113061089831A83BE016F5F7F4F86E390E00E9457
S11306209F0084E089831A83BE016F5F7F4F86E356
S113063090E00E949F0029C087E089831A82BE014E
S11306406F5F7F4F86E390E00E949F0086E089837E
S113065082E08A83BE016F5F7F4F86E390E00E9451
S11306609F0085E089831A82BE016F5F7F4F86E316
S113067090E00E949F0084E089831A82BE016F5F2C
S11306807F4F86E390E00E949F000F900F90DF91D0
S1130690CF911F910895FC0120812FB9613021F47D
S11306A0779BFECF779BFECF2FB1FC01208308956B
S11306B01F920F920FB60F9211242F933F934F93D3
S11306C05F936F937F938F939F93AF93BF93EF93B6
S11306D0FF93E0916000F09161000084F185E02DCA
S11306E00995FF91EF91BF91AF919F918F917F9168
S11306F06F915F914F913F912F910F900FBE0F908B
S11307001F901895FC01818189B9599882818230A2
S113071009F128F4882341F0813089F03BC083300B
S113072021F1843069F136C080B5806880BD80B520
S11307308D7F80BD80B58B7F80BD52982BC080B5E6
S1130740806880BD80B5826080BD80B58B7F80BDB0
S1130750529820C080B5806880BD80B58D7F80BDF3
S113076080B5846080BD529815C080B5806880BD16
S113077080B5826080BD80B5846080BD52980AC017
S113078080B5806880BD80B5826080BD80B584609E
S113079080BD529A8381813071F018F08230A9F0C3
S11307A01DC080B5806880BD80B58F7E80BD80B55A
S11307B08F7D80BD13C080B5806880BD80B58061A9
S11307C080BD80B5806280BD09C080B5806880BD71
S11307D080B58F7E80BD80B5806280BD8481882392
S11307E019F0813041F00DC080B5806880BD80B5BE
S11307F0877F80BD06C080B5806880BD80B5886075
S113080080BD8081882319F0813041F00DC080B50E
S1130810806880BD80B58F7B80BD06C080B5806850
S113082080BD80B5806480BD8581813081F028F0F1
S11308308230C9F0833019F12DC057985698109220
S11308408500109284008FB78F778FBF23C057988D
S1130850569A8681978190938500809384008FB700
S113086080688FBF17C0579A569886819781909356
S11308708500809384008FB780688FBF0BC0579A20
S1130880569A8681978190938500809384008FB7D0
S113089080688FBF549A539A0895662311F05D9B24
S11308A0FECF529B03C050988CB908958CB908951B
S11308B0882311F05F9BFECF529B0AC08AB19CB182
S11308C086958170382F20E0A901492BCA0108952B
S11308D08CB190E008951F920F920FB60F921124DD
S11308E02F933F934F935F936F937F938F939F9334
S11308F0AF93BF93EF93FF93E0918400F091850051
S11309000995FF91EF91BF91AF919F918F917F9145
S11309106F915F914F913F912F910F900FBE0F9068
S11309201F9018951F920F920FB60F9211242F93B8
S11309303F934F935F936F937F938F939F93AF9363
S1130940BF93EF93FF93E0918400F09185000995A4
S1130950FF91EF91BF91AF919F918F917F916F9193
S11309605F914F913F912F910F900FBE0F901F9069
S11309701895EE0FFF1F0590F491E02D0994F8945B
S1050980FFCFA3
S9030000FC
