:100000000C942A000C9434000C9434000C943400AA
:100010000C9434000C9434000C9434000C94340090
:100020000C9434000C9434000C9434000C94340080
:100030000C9434000C9434000C9434000C94340070
:100040000C9434000C9434000C9434000C94340060
:100050000C94340011241FBECFE5D8E0DEBFCDBF25
:100060000E9440000C9448000C940000BE9A87B394
:100070008F7487BB6E9A0895779BFECF8FB10895DA
:100080008FEF8ABB0E9436000E943C008BBBFCCFE6
:04009000F894FFCF12
:00000001FF
