:020000040800F2
:100000000028002079010008C9010008C901000882
:10001000C9010008C9010008C9010008000000006A
:10002000000000000000000000000000C9010008FE
:10003000C901000800000000C9010008C90100084A
:10004000C9010008C9010008C9010008C901000868
:10005000C9010008C9010008C9010008C901000858
:10006000C9010008C9010008C9010008C901000848
:10007000C9010008C9010008C9010008C901000838
:10008000C9010008C9010008C9010008C901000828
:10009000C9010008C9010008C9010008C901000818
:1000A000C9010008C9010008C9010008C901000808
:1000B000C9010008C9010008C9010008C9010008F8
:1000C000C9010008C9010008C9010008C9010008E8
:1000D000C9010008C9010008C9010008C9010008D8
:1000E000C9010008C901000800000000C90100089A
:1000F000C9010008C9010008C9010008C9010008B8
:10010000C9010008C9010008C9010008C9010008A7
:10011000C9010008C9010008C9010008C901000897
:10012000C9010008C9010008C9010008C901000887
:1001300010B5054C237833B9044B13B10448AFF321
:1001400000800123237010BD00000020000000008B
:100150001402000808B5034B1BB103490348AFF371
:10016000008008BD00000000040000201402000808
:1001700080B400AFFEE700000D488546AFF3008075
:100180000C480D490D4A002302E0D458C4500433F2
:10019000C4188C42F9D30A4A0A4C002301E01360C8
:1001A0000432A242FBD300F011F8FFF7E1FFFEE7B3
:1001B0000028002000000020000000203402000879
:1001C000000000201C000020FEE7000070B50026A3
:1001D0000C4D0D4C641BA410A64209D100F01AF876
:1001E00000260A4D0A4C641BA410A64205D170BD1E
:1001F00055F8043B98470136EEE755F8043B98471D
:100200000136F2E72C0200082C0200082C0200083C
:1002100030020008F8B500BFF8BC08BC9E46704725
:0C022000F8B500BFF8BC08BC9E46704753
:04022C005501000870
:040230003101000890
:040000050800017975
:00000001FF
