:100000000C942A000C943C000C943C000C943C0092
:100010000C943C000C943C000C943C000C943C0070
:100020000C943C000C943C000C9409010C94E200EC
:100030000C9482000C9430010C943C000C945701F9
:100040000C943C000C943C000C943C000C943C0040
:100050000C943C0011241FBECFE5D8E0DEBFCDBF1D
:1000600020E0A0E6B0E001C01D92AD36B207E1F796
:100070000E947D000C947E010C9400008091600031
:1000800090916100A0916200B09163000196A11D62
:10009000B11D8093600090936100A0936200B093C3
:1000A000630081359F40A105B10561F498B381E0FB
:1000B000892788BB10926000109261001092620044
:1000C000109263000895CF93DF9300D000D01F9269
:1000D000CDB7DEB7B89A84E60E94E00088E0898355
:1000E00082E08A8381E08B838EE390E09D838C8322
:1000F000CE0101960E94AC00FFCF0E94630080E019
:1001000090E008951F920F920FB60F9211242F9333
:100110003F934F935F936F937F938F939F93AF938F
:10012000BF93EF93FF93E0916400F091650000842A
:10013000F185E02D0995FF91EF91BF91AF919F91CE
:100140008F917F916F915F914F913F912F910F9080
:100150000FBE0F901F901895CF93DF93EC0185E0B1
:10016000FE01A8E6B0E001900D928A95E1F793B701
:100170008881892B83BF88818F7E883609F4BB9A5A
:1001800093B78981892B83BF89818650823008F497
:10019000B89899B78A81892B89BF8A81882321F0F1
:1001A0008FB780688FBF03C08FB78F778FBF8B816A
:1001B0009C819093670080936600DF91CF910895B2
:1001C0008CBF08951F920F920FB60F9211242F9398
:1001D0003F934F935F936F937F938F939F93AF93CF
:1001E000BF93EF93FF93E0916600F091670009954C
:1001F000FF91EF91BF91AF919F918F917F916F91FF
:100200005F914F913F912F910F900FBE0F901F90D4
:1002100018951F920F920FB60F9211242F933F93B0
:100220004F935F936F937F938F939F93AF93BF93FE
:10023000EF93FF93E0916600F09167000995FF91BD
:10024000EF91BF91AF919F918F917F916F915F914E
:100250004F913F912F910F900FBE0F901F901895C7
:100260001F920F920FB60F9211242F933F934F932B
:100270005F936F937F938F939F93AF93BF93EF930E
:10028000FF93E0916600F09167000995FF91EF916F
:10029000BF91AF919F918F917F916F915F914F919E
:1002A0003F912F910F900FBE0F901F9018951F92A6
:1002B0000F920FB60F9211242F933F934F935F939A
:1002C0006F937F938F939F93AF93BF93EF93FF931E
:1002D000E0916600F09167000995FF91EF91BF9161
:1002E000AF919F918F917F916F915F914F913F91CE
:1002F0002F910F900FBE0F901F901895F894FFCF7D
:00000001FF
