S01200005350492D4D61737465722E737265638D
S11300000C942A000C9434000C9434000C943400A6
S11300100C9434000C9434000C9434000C9434008C
S11300200C9434000C9434000C9434000C9434007C
S11300300C9434000C9434000C9434000C9434006C
S11300400C9434000C9434000C9434000C9434005C
S11300500C94340011241FBECFE5D8E0DEBFCDBF21
S11300600E9442000C9456000C94000087B3806BED
S113007087BBBE9881E58DB908958FB9779BFECF74
S11300808FB108958FEF8ABB0E943600C0E02FE342
S11300908DE093E0215080409040E1F700C00000E3
S11300A08C2F0E943D008BBBCF5FF1CFF894FFCF24
S9030000FC
